{
  "_format": "hh-sol-artifact-1",
  "contractName": "MetalForgeBadges",
  "sourceName": "contracts/MetalForgeBadges.sol",
  "abi": [
    {
      "inputs": [],
      "stateMutability": "nonpayable",
      "type": "constructor"
    },
    {
      "anonymous": false,
      "inputs": [
        {
          "indexed": true,
          "internalType": "address",
          "name": "owner",
          "type": "address"
        },
        {
          "indexed": true,
          "internalType": "address",
          "name": "approved",
          "type": "address"
        },
        {
          "indexed": true,
          "internalType": "uint256",
          "name": "tokenId",
          "type": "uint256"
        }
      ],
      "name": "Approval",
      "type": "event"
    },
    {
      "anonymous": false,
      "inputs": [
        {
          "indexed": true,
          "internalType": "address",
          "name": "owner",
          "type": "address"
        },
        {
          "indexed": true,
          "internalType": "address",
          "name": "operator",
          "type": "address"
        },
        {
          "indexed": false,
          "internalType": "bool",
          "name": "approved",
          "type": "bool"
        }
      ],
      "name": "ApprovalForAll",
      "type": "event"
    },
    {
      "anonymous": false,
      "inputs": [
        {
          "indexed": true,
          "internalType": "address",
          "name": "user",
          "type": "address"
        },
        {
          "indexed": false,
          "internalType": "uint256",
          "name": "tokenId",
          "type": "uint256"
        }
      ],
      "name": "BadgeMinted",
      "type": "event"
    },
    {
      "anonymous": false,
      "inputs": [
        {
          "indexed": true,
          "internalType": "address",
          "name": "user",
          "type": "address"
        },
        {
          "indexed": false,
          "internalType": "uint256",
          "name": "newCount",
          "type": "uint256"
        }
      ],
      "name": "BandCountUpdated",
      "type": "event"
    },
    {
      "anonymous": false,
      "inputs": [
        {
          "indexed": true,
          "internalType": "address",
          "name": "previousOwner",
          "type": "address"
        },
        {
          "indexed": true,
          "internalType": "address",
          "name": "newOwner",
          "type": "address"
        }
      ],
      "name": "OwnershipTransferred",
      "type": "event"
    },
    {
      "anonymous": false,
      "inputs": [
        {
          "indexed": true,
          "internalType": "address",
          "name": "from",
          "type": "address"
        },
        {
          "indexed": true,
          "internalType": "address",
          "name": "to",
          "type": "address"
        },
        {
          "indexed": true,
          "internalType": "uint256",
          "name": "tokenId",
          "type": "uint256"
        }
      ],
      "name": "Transfer",
      "type": "event"
    },
    {
      "inputs": [
        {
          "internalType": "address",
          "name": "to",
          "type": "address"
        },
        {
          "internalType": "uint256",
          "name": "tokenId",
          "type": "uint256"
        }
      ],
      "name": "approve",
      "outputs": [],
      "stateMutability": "nonpayable",
      "type": "function"
    },
    {
      "inputs": [
        {
          "internalType": "address",
          "name": "owner",
          "type": "address"
        }
      ],
      "name": "balanceOf",
      "outputs": [
        {
          "internalType": "uint256",
          "name": "",
          "type": "uint256"
        }
      ],
      "stateMutability": "view",
      "type": "function"
    },
    {
      "inputs": [
        {
          "internalType": "address",
          "name": "",
          "type": "address"
        }
      ],
      "name": "bandCount",
      "outputs": [
        {
          "internalType": "uint256",
          "name": "",
          "type": "uint256"
        }
      ],
      "stateMutability": "view",
      "type": "function"
    },
    {
      "inputs": [
        {
          "internalType": "uint256",
          "name": "tokenId",
          "type": "uint256"
        }
      ],
      "name": "getApproved",
      "outputs": [
        {
          "internalType": "address",
          "name": "",
          "type": "address"
        }
      ],
      "stateMutability": "view",
      "type": "function"
    },
    {
      "inputs": [
        {
          "internalType": "address",
          "name": "user",
          "type": "address"
        }
      ],
      "name": "getUserBandCount",
      "outputs": [
        {
          "internalType": "uint256",
          "name": "",
          "type": "uint256"
        }
      ],
      "stateMutability": "view",
      "type": "function"
    },
    {
      "inputs": [
        {
          "internalType": "address",
          "name": "",
          "type": "address"
        }
      ],
      "name": "hasBronzeBadge",
      "outputs": [
        {
          "internalType": "bool",
          "name": "",
          "type": "bool"
        }
      ],
      "stateMutability": "view",
      "type": "function"
    },
    {
      "inputs": [
        {
          "internalType": "address",
          "name": "owner",
          "type": "address"
        },
        {
          "internalType": "address",
          "name": "operator",
          "type": "address"
        }
      ],
      "name": "isApprovedForAll",
      "outputs": [
        {
          "internalType": "bool",
          "name": "",
          "type": "bool"
        }
      ],
      "stateMutability": "view",
      "type": "function"
    },
    {
      "inputs": [],
      "name": "name",
      "outputs": [
        {
          "internalType": "string",
          "name": "",
          "type": "string"
        }
      ],
      "stateMutability": "view",
      "type": "function"
    },
    {
      "inputs": [],
      "name": "owner",
      "outputs": [
        {
          "internalType": "address",
          "name": "",
          "type": "address"
        }
      ],
      "stateMutability": "view",
      "type": "function"
    },
    {
      "inputs": [
        {
          "internalType": "uint256",
          "name": "tokenId",
          "type": "uint256"
        }
      ],
      "name": "ownerOf",
      "outputs": [
        {
          "internalType": "address",
          "name": "",
          "type": "address"
        }
      ],
      "stateMutability": "view",
      "type": "function"
    },
    {
      "inputs": [],
      "name": "renounceOwnership",
      "outputs": [],
      "stateMutability": "nonpayable",
      "type": "function"
    },
    {
      "inputs": [
        {
          "internalType": "address",
          "name": "from",
          "type": "address"
        },
        {
          "internalType": "address",
          "name": "to",
          "type": "address"
        },
        {
          "internalType": "uint256",
          "name": "tokenId",
          "type": "uint256"
        }
      ],
      "name": "safeTransferFrom",
      "outputs": [],
      "stateMutability": "nonpayable",
      "type": "function"
    },
    {
      "inputs": [
        {
          "internalType": "address",
          "name": "from",
          "type": "address"
        },
        {
          "internalType": "address",
          "name": "to",
          "type": "address"
        },
        {
          "internalType": "uint256",
          "name": "tokenId",
          "type": "uint256"
        },
        {
          "internalType": "bytes",
          "name": "data",
          "type": "bytes"
        }
      ],
      "name": "safeTransferFrom",
      "outputs": [],
      "stateMutability": "nonpayable",
      "type": "function"
    },
    {
      "inputs": [
        {
          "internalType": "address",
          "name": "operator",
          "type": "address"
        },
        {
          "internalType": "bool",
          "name": "approved",
          "type": "bool"
        }
      ],
      "name": "setApprovalForAll",
      "outputs": [],
      "stateMutability": "nonpayable",
      "type": "function"
    },
    {
      "inputs": [
        {
          "internalType": "bytes4",
          "name": "interfaceId",
          "type": "bytes4"
        }
      ],
      "name": "supportsInterface",
      "outputs": [
        {
          "internalType": "bool",
          "name": "",
          "type": "bool"
        }
      ],
      "stateMutability": "view",
      "type": "function"
    },
    {
      "inputs": [],
      "name": "symbol",
      "outputs": [
        {
          "internalType": "string",
          "name": "",
          "type": "string"
        }
      ],
      "stateMutability": "view",
      "type": "function"
    },
    {
      "inputs": [
        {
          "internalType": "uint256",
          "name": "tokenId",
          "type": "uint256"
        }
      ],
      "name": "tokenURI",
      "outputs": [
        {
          "internalType": "string",
          "name": "",
          "type": "string"
        }
      ],
      "stateMutability": "pure",
      "type": "function"
    },
    {
      "inputs": [
        {
          "internalType": "address",
          "name": "from",
          "type": "address"
        },
        {
          "internalType": "address",
          "name": "to",
          "type": "address"
        },
        {
          "internalType": "uint256",
          "name": "tokenId",
          "type": "uint256"
        }
      ],
      "name": "transferFrom",
      "outputs": [],
      "stateMutability": "nonpayable",
      "type": "function"
    },
    {
      "inputs": [
        {
          "internalType": "address",
          "name": "newOwner",
          "type": "address"
        }
      ],
      "name": "transferOwnership",
      "outputs": [],
      "stateMutability": "nonpayable",
      "type": "function"
    },
    {
      "inputs": [
        {
          "internalType": "address",
          "name": "user",
          "type": "address"
        },
        {
          "internalType": "uint256",
          "name": "newCount",
          "type": "uint256"
        }
      ],
      "name": "updateBandCount",
      "outputs": [],
      "stateMutability": "nonpayable",
      "type": "function"
    }
  ],
  "bytecode": "0x60806040523480156200001157600080fd5b50604051806040016040528060118152602001704d6574616c466f7267652042616467657360781b8152506040518060400160405280600381526020016226a32160e91b815250816000908162000069919062000196565b50600162000078828262000196565b505050620000956200008f6200009b60201b60201c565b6200009f565b62000262565b3390565b600680546001600160a01b038381166001600160a01b0319831681179093556040519116919082907f8be0079c531659141344cd1fd0a4f28419497f9722a3daafe3b4186f6b6457e090600090a35050565b634e487b7160e01b600052604160045260246000fd5b600181811c908216806200011c57607f821691505b6020821081036200013d57634e487b7160e01b600052602260045260246000fd5b50919050565b601f8211156200019157600081815260208120601f850160051c810160208610156200016c5750805b601f850160051c820191505b818110156200018d5782815560010162000178565b5050505b505050565b81516001600160401b03811115620001b257620001b2620000f1565b620001ca81620001c3845462000107565b8462000143565b602080601f831160018114620002025760008415620001e95750858301515b600019600386901b1c1916600185901b1785556200018d565b600085815260208120601f198616915b82811015620002335788860151825594840194600190910190840162000212565b5085821015620002525787850151600019600388901b60f8161c191681555b5050505050600190811b01905550565b61144d80620002726000396000f3fe608060405234801561001057600080fd5b506004361061012c5760003560e01c8063715018a6116100ad578063b9ba073311610071578063b9ba073314610285578063c87b56dd146102a5578063e985e9c5146102b8578063f2fde38b146102f4578063f5f60b9c1461030757600080fd5b8063715018a61461023e5780638da5cb5b1461024657806395d89b4114610257578063a22cb4651461025f578063b88d4fde1461027257600080fd5b806342842e0e116100f457806342842e0e146101c157806348d0d0d2146101d457806361ec48ec146101e75780636352211e1461020a57806370a082311461021d57600080fd5b806301ffc9a71461013157806306fdde0314610159578063081812fc1461016e578063095ea7b31461019957806323b872dd146101ae575b600080fd5b61014461013f366004610fa1565b610330565b60405190151581526020015b60405180910390f35b610161610382565b604051610150919061100b565b61018161017c36600461101e565b610414565b6040516001600160a01b039091168152602001610150565b6101ac6101a7366004611053565b61043b565b005b6101ac6101bc36600461107d565b610555565b6101ac6101cf36600461107d565b610586565b6101ac6101e2366004611053565b6105a1565b6101446101f53660046110b9565b60096020526000908152604090205460ff1681565b61018161021836600461101e565b61063a565b61023061022b3660046110b9565b61069a565b604051908152602001610150565b6101ac610720565b6006546001600160a01b0316610181565b610161610734565b6101ac61026d3660046110d4565b610743565b6101ac610280366004611126565b61074e565b6102306102933660046110b9565b60086020526000908152604090205481565b6101616102b336600461101e565b610786565b6101446102c6366004611202565b6001600160a01b03918216600090815260056020908152604080832093909416825291909152205460ff1690565b6101ac6103023660046110b9565b6107a7565b6102306103153660046110b9565b6001600160a01b031660009081526008602052604090205490565b60006001600160e01b031982166380ac58cd60e01b148061036157506001600160e01b03198216635b5e139f60e01b145b8061037c57506301ffc9a760e01b6001600160e01b03198316145b92915050565b60606000805461039190611235565b80601f01602080910402602001604051908101604052809291908181526020018280546103bd90611235565b801561040a5780601f106103df5761010080835404028352916020019161040a565b820191906000526020600020905b8154815290600101906020018083116103ed57829003601f168201915b5050505050905090565b600061041f82610820565b506000908152600460205260409020546001600160a01b031690565b60006104468261063a565b9050806001600160a01b0316836001600160a01b0316036104b85760405162461bcd60e51b815260206004820152602160248201527f4552433732313a20617070726f76616c20746f2063757272656e74206f776e656044820152603960f91b60648201526084015b60405180910390fd5b336001600160a01b03821614806104d457506104d481336102c6565b6105465760405162461bcd60e51b815260206004820152603d60248201527f4552433732313a20617070726f76652063616c6c6572206973206e6f7420746f60448201527f6b656e206f776e6572206f7220617070726f76656420666f7220616c6c00000060648201526084016104af565b610550838361087f565b505050565b61055f33826108ed565b61057b5760405162461bcd60e51b81526004016104af9061126f565b61055083838361096c565b6105508383836040518060200160405280600081525061074e565b6105a9610ad0565b6001600160a01b03821660008181526008602052604090819020839055517f2600329622934e11fb103e6d38cfe127d00165f6218e45d50fd8c232b168dc95906105f69084815260200190565b60405180910390a26001811015801561062857506001600160a01b03821660009081526009602052604090205460ff16155b156106365761063682610b2a565b5050565b6000818152600260205260408120546001600160a01b03168061037c5760405162461bcd60e51b8152602060048201526018602482015277115490cdcc8c4e881a5b9d985b1a59081d1bdad95b88125160421b60448201526064016104af565b60006001600160a01b0382166107045760405162461bcd60e51b815260206004820152602960248201527f4552433732313a2061646472657373207a65726f206973206e6f7420612076616044820152683634b21037bbb732b960b91b60648201526084016104af565b506001600160a01b031660009081526003602052604090205490565b610728610ad0565b6107326000610bac565b565b60606001805461039190611235565b610636338383610bfe565b61075833836108ed565b6107745760405162461bcd60e51b81526004016104af9061126f565b61078084848484610ccc565b50505050565b60606040518060800160405280604381526020016113d56043913992915050565b6107af610ad0565b6001600160a01b0381166108145760405162461bcd60e51b815260206004820152602660248201527f4f776e61626c653a206e6577206f776e657220697320746865207a65726f206160448201526564647265737360d01b60648201526084016104af565b61081d81610bac565b50565b6000818152600260205260409020546001600160a01b031661081d5760405162461bcd60e51b8152602060048201526018602482015277115490cdcc8c4e881a5b9d985b1a59081d1bdad95b88125160421b60448201526064016104af565b600081815260046020526040902080546001600160a01b0319166001600160a01b03841690811790915581906108b48261063a565b6001600160a01b03167f8c5be1e5ebec7d5bd14f71427d1e84f3dd0314c0f7b2291e5b200ac8c7c3b92560405160405180910390a45050565b6000806108f98361063a565b9050806001600160a01b0316846001600160a01b0316148061094057506001600160a01b0380821660009081526005602090815260408083209388168352929052205460ff165b806109645750836001600160a01b031661095984610414565b6001600160a01b0316145b949350505050565b826001600160a01b031661097f8261063a565b6001600160a01b0316146109a55760405162461bcd60e51b81526004016104af906112bc565b6001600160a01b038216610a075760405162461bcd60e51b8152602060048201526024808201527f4552433732313a207472616e7366657220746f20746865207a65726f206164646044820152637265737360e01b60648201526084016104af565b826001600160a01b0316610a1a8261063a565b6001600160a01b031614610a405760405162461bcd60e51b81526004016104af906112bc565b600081815260046020908152604080832080546001600160a01b03199081169091556001600160a01b0387811680865260038552838620805460001901905590871680865283862080546001019055868652600290945282852080549092168417909155905184937fddf252ad1be2c89b69c2b068fc378daa952ba7f163c4a11628f55a4df523b3ef91a4505050565b6006546001600160a01b031633146107325760405162461bcd60e51b815260206004820181905260248201527f4f776e61626c653a2063616c6c6572206973206e6f7420746865206f776e657260448201526064016104af565b6007805460009182610b3b83611301565b919050559050610b4b8282610cff565b6001600160a01b03821660008181526009602052604090819020805460ff19166001179055517fc5e5b314108c1f776c2302351b8278910ddb812b122b2717b1bc973146145e9a90610ba09084815260200190565b60405180910390a25050565b600680546001600160a01b038381166001600160a01b0319831681179093556040519116919082907f8be0079c531659141344cd1fd0a4f28419497f9722a3daafe3b4186f6b6457e090600090a35050565b816001600160a01b0316836001600160a01b031603610c5f5760405162461bcd60e51b815260206004820152601960248201527f4552433732313a20617070726f766520746f2063616c6c65720000000000000060448201526064016104af565b6001600160a01b03838116600081815260056020908152604080832094871680845294825291829020805460ff191686151590811790915591519182527f17307eab39ab6107e8899845ad3d59bd9653f200f220920489ca2b5937696c31910160405180910390a3505050565b610cd784848461096c565b610ce384848484610e8a565b6107805760405162461bcd60e51b81526004016104af90611328565b6001600160a01b038216610d555760405162461bcd60e51b815260206004820181905260248201527f4552433732313a206d696e7420746f20746865207a65726f206164647265737360448201526064016104af565b6000818152600260205260409020546001600160a01b031615610dba5760405162461bcd60e51b815260206004820152601c60248201527f4552433732313a20746f6b656e20616c7265616479206d696e7465640000000060448201526064016104af565b6000818152600260205260409020546001600160a01b031615610e1f5760405162461bcd60e51b815260206004820152601c60248201527f4552433732313a20746f6b656e20616c7265616479206d696e7465640000000060448201526064016104af565b6001600160a01b038216600081815260036020908152604080832080546001019055848352600290915280822080546001600160a01b0319168417905551839291907fddf252ad1be2c89b69c2b068fc378daa952ba7f163c4a11628f55a4df523b3ef908290a45050565b60006001600160a01b0384163b15610f8057604051630a85bd0160e11b81526001600160a01b0385169063150b7a0290610ece90339089908890889060040161137a565b6020604051808303816000875af1925050508015610f09575060408051601f3d908101601f19168201909252610f06918101906113b7565b60015b610f66573d808015610f37576040519150601f19603f3d011682016040523d82523d6000602084013e610f3c565b606091505b508051600003610f5e5760405162461bcd60e51b81526004016104af90611328565b805181602001fd5b6001600160e01b031916630a85bd0160e11b149050610964565b506001949350505050565b6001600160e01b03198116811461081d57600080fd5b600060208284031215610fb357600080fd5b8135610fbe81610f8b565b9392505050565b6000815180845260005b81811015610feb57602081850181015186830182015201610fcf565b506000602082860101526020601f19601f83011685010191505092915050565b602081526000610fbe6020830184610fc5565b60006020828403121561103057600080fd5b5035919050565b80356001600160a01b038116811461104e57600080fd5b919050565b6000806040838503121561106657600080fd5b61106f83611037565b946020939093013593505050565b60008060006060848603121561109257600080fd5b61109b84611037565b92506110a960208501611037565b9150604084013590509250925092565b6000602082840312156110cb57600080fd5b610fbe82611037565b600080604083850312156110e757600080fd5b6110f083611037565b91506020830135801515811461110557600080fd5b809150509250929050565b634e487b7160e01b600052604160045260246000fd5b6000806000806080858703121561113c57600080fd5b61114585611037565b935061115360208601611037565b925060408501359150606085013567ffffffffffffffff8082111561117757600080fd5b818701915087601f83011261118b57600080fd5b81358181111561119d5761119d611110565b604051601f8201601f19908116603f011681019083821181831017156111c5576111c5611110565b816040528281528a60208487010111156111de57600080fd5b82602086016020830137600060208483010152809550505050505092959194509250565b6000806040838503121561121557600080fd5b61121e83611037565b915061122c60208401611037565b90509250929050565b600181811c9082168061124957607f821691505b60208210810361126957634e487b7160e01b600052602260045260246000fd5b50919050565b6020808252602d908201527f4552433732313a2063616c6c6572206973206e6f7420746f6b656e206f776e6560408201526c1c881bdc88185c1c1c9bdd9959609a1b606082015260800190565b60208082526025908201527f4552433732313a207472616e736665722066726f6d20696e636f72726563742060408201526437bbb732b960d91b606082015260800190565b60006001820161132157634e487b7160e01b600052601160045260246000fd5b5060010190565b60208082526032908201527f4552433732313a207472616e7366657220746f206e6f6e20455243373231526560408201527131b2b4bb32b91034b6b83632b6b2b73a32b960711b606082015260800190565b6001600160a01b03858116825284166020820152604081018390526080606082018190526000906113ad90830184610fc5565b9695505050505050565b6000602082840312156113c957600080fd5b8151610fbe81610f8b56fe68747470733a2f2f6d6574616c666f677265617070323032352d366675722e76657263656c2e6170702f6170692f62616467652d6d657461646174612f62726f6e7a65a2646970667358221220dedd24db81ce04e0bb089c60afb6cf387963bfc00023c1ee8012919501d3f43a64736f6c63430008140033",
  "linkReferences": {},
  "deployedLinkReferences": {}
}