{
  "_format": "hh-sol-artifact-1",
  "contractName": "MetalForgeRegistry",
  "sourceName": "contracts/MetalForgeRegistry.sol",
  "abi": [
    {
      "inputs": [],
      "stateMutability": "nonpayable",
      "type": "constructor"
    },
    {
      "inputs": [
        {
          "internalType": "address",
          "name": "owner",
          "type": "address"
        }
      ],
      "name": "OwnableInvalidOwner",
      "type": "error"
    },
    {
      "inputs": [
        {
          "internalType": "address",
          "name": "account",
          "type": "address"
        }
      ],
      "name": "OwnableUnauthorizedAccount",
      "type": "error"
    },
    {
      "inputs": [],
      "name": "ReentrancyGuardReentrantCall",
      "type": "error"
    },
    {
      "anonymous": false,
      "inputs": [
        {
          "indexed": true,
          "internalType": "uint256",
          "name": "bandId",
          "type": "uint256"
        },
        {
          "indexed": false,
          "internalType": "string",
          "name": "name",
          "type": "string"
        },
        {
          "indexed": false,
          "internalType": "string",
          "name": "genre",
          "type": "string"
        },
        {
          "indexed": true,
          "internalType": "address",
          "name": "addedBy",
          "type": "address"
        },
        {
          "indexed": false,
          "internalType": "uint256",
          "name": "timestamp",
          "type": "uint256"
        }
      ],
      "name": "BandAdded",
      "type": "event"
    },
    {
      "anonymous": false,
      "inputs": [
        {
          "indexed": true,
          "internalType": "uint256",
          "name": "bandId",
          "type": "uint256"
        },
        {
          "indexed": true,
          "internalType": "address",
          "name": "verifier",
          "type": "address"
        },
        {
          "indexed": false,
          "internalType": "uint256",
          "name": "timestamp",
          "type": "uint256"
        }
      ],
      "name": "BandVerified",
      "type": "event"
    },
    {
      "anonymous": false,
      "inputs": [
        {
          "indexed": true,
          "internalType": "address",
          "name": "previousOwner",
          "type": "address"
        },
        {
          "indexed": true,
          "internalType": "address",
          "name": "newOwner",
          "type": "address"
        }
      ],
      "name": "OwnershipTransferred",
      "type": "event"
    },
    {
      "anonymous": false,
      "inputs": [
        {
          "indexed": true,
          "internalType": "address",
          "name": "user",
          "type": "address"
        },
        {
          "indexed": false,
          "internalType": "uint256",
          "name": "newReputation",
          "type": "uint256"
        },
        {
          "indexed": false,
          "internalType": "string",
          "name": "reason",
          "type": "string"
        }
      ],
      "name": "ReputationUpdated",
      "type": "event"
    },
    {
      "anonymous": false,
      "inputs": [
        {
          "indexed": true,
          "internalType": "address",
          "name": "verifier",
          "type": "address"
        }
      ],
      "name": "VerifierAdded",
      "type": "event"
    },
    {
      "anonymous": false,
      "inputs": [
        {
          "indexed": true,
          "internalType": "address",
          "name": "verifier",
          "type": "address"
        }
      ],
      "name": "VerifierRemoved",
      "type": "event"
    },
    {
      "inputs": [],
      "name": "MIN_YEAR",
      "outputs": [
        {
          "internalType": "uint256",
          "name": "",
          "type": "uint256"
        }
      ],
      "stateMutability": "view",
      "type": "function"
    },
    {
      "inputs": [],
      "name": "POINTS_GENRE_DIVERSITY",
      "outputs": [
        {
          "internalType": "uint256",
          "name": "",
          "type": "uint256"
        }
      ],
      "stateMutability": "view",
      "type": "function"
    },
    {
      "inputs": [],
      "name": "POINTS_PER_BAND",
      "outputs": [
        {
          "internalType": "uint256",
          "name": "",
          "type": "uint256"
        }
      ],
      "stateMutability": "view",
      "type": "function"
    },
    {
      "inputs": [],
      "name": "POINTS_PER_VERIFICATION",
      "outputs": [
        {
          "internalType": "uint256",
          "name": "",
          "type": "uint256"
        }
      ],
      "stateMutability": "view",
      "type": "function"
    },
    {
      "inputs": [
        {
          "internalType": "string",
          "name": "_name",
          "type": "string"
        },
        {
          "internalType": "string",
          "name": "_genre",
          "type": "string"
        },
        {
          "internalType": "string",
          "name": "_country",
          "type": "string"
        },
        {
          "internalType": "uint256",
          "name": "_yearFormed",
          "type": "uint256"
        }
      ],
      "name": "addBand",
      "outputs": [],
      "stateMutability": "nonpayable",
      "type": "function"
    },
    {
      "inputs": [
        {
          "internalType": "address",
          "name": "_verifier",
          "type": "address"
        }
      ],
      "name": "addVerifier",
      "outputs": [],
      "stateMutability": "nonpayable",
      "type": "function"
    },
    {
      "inputs": [
        {
          "internalType": "string",
          "name": "",
          "type": "string"
        }
      ],
      "name": "bandExists",
      "outputs": [
        {
          "internalType": "bool",
          "name": "",
          "type": "bool"
        }
      ],
      "stateMutability": "view",
      "type": "function"
    },
    {
      "inputs": [
        {
          "internalType": "uint256",
          "name": "",
          "type": "uint256"
        }
      ],
      "name": "bands",
      "outputs": [
        {
          "internalType": "uint256",
          "name": "id",
          "type": "uint256"
        },
        {
          "internalType": "string",
          "name": "name",
          "type": "string"
        },
        {
          "internalType": "string",
          "name": "genre",
          "type": "string"
        },
        {
          "internalType": "string",
          "name": "country",
          "type": "string"
        },
        {
          "internalType": "uint256",
          "name": "yearFormed",
          "type": "uint256"
        },
        {
          "internalType": "address",
          "name": "addedBy",
          "type": "address"
        },
        {
          "internalType": "uint256",
          "name": "addedAt",
          "type": "uint256"
        },
        {
          "internalType": "bool",
          "name": "isVerified",
          "type": "bool"
        },
        {
          "internalType": "address",
          "name": "verifier",
          "type": "address"
        },
        {
          "internalType": "uint256",
          "name": "reputation",
          "type": "uint256"
        },
        {
          "internalType": "string",
          "name": "metadataURI",
          "type": "string"
        }
      ],
      "stateMutability": "view",
      "type": "function"
    },
    {
      "inputs": [
        {
          "internalType": "uint256",
          "name": "_bandId",
          "type": "uint256"
        }
      ],
      "name": "getBand",
      "outputs": [
        {
          "components": [
            {
              "internalType": "uint256",
              "name": "id",
              "type": "uint256"
            },
            {
              "internalType": "string",
              "name": "name",
              "type": "string"
            },
            {
              "internalType": "string",
              "name": "genre",
              "type": "string"
            },
            {
              "internalType": "string",
              "name": "country",
              "type": "string"
            },
            {
              "internalType": "uint256",
              "name": "yearFormed",
              "type": "uint256"
            },
            {
              "internalType": "address",
              "name": "addedBy",
              "type": "address"
            },
            {
              "internalType": "uint256",
              "name": "addedAt",
              "type": "uint256"
            },
            {
              "internalType": "bool",
              "name": "isVerified",
              "type": "bool"
            },
            {
              "internalType": "address",
              "name": "verifier",
              "type": "address"
            },
            {
              "internalType": "uint256",
              "name": "reputation",
              "type": "uint256"
            },
            {
              "internalType": "string",
              "name": "metadataURI",
              "type": "string"
            }
          ],
          "internalType": "struct MetalForgeRegistry.Band",
          "name": "",
          "type": "tuple"
        }
      ],
      "stateMutability": "view",
      "type": "function"
    },
    {
      "inputs": [
        {
          "internalType": "string",
          "name": "_genre",
          "type": "string"
        }
      ],
      "name": "getBandsByGenre",
      "outputs": [
        {
          "internalType": "uint256[]",
          "name": "",
          "type": "uint256[]"
        }
      ],
      "stateMutability": "view",
      "type": "function"
    },
    {
      "inputs": [],
      "name": "getTotalBands",
      "outputs": [
        {
          "internalType": "uint256",
          "name": "",
          "type": "uint256"
        }
      ],
      "stateMutability": "view",
      "type": "function"
    },
    {
      "inputs": [
        {
          "internalType": "address",
          "name": "_user",
          "type": "address"
        }
      ],
      "name": "getUserBands",
      "outputs": [
        {
          "internalType": "uint256[]",
          "name": "",
          "type": "uint256[]"
        }
      ],
      "stateMutability": "view",
      "type": "function"
    },
    {
      "inputs": [
        {
          "internalType": "address",
          "name": "_user",
          "type": "address"
        }
      ],
      "name": "getUserStats",
      "outputs": [
        {
          "components": [
            {
              "internalType": "uint256",
              "name": "totalBands",
              "type": "uint256"
            },
            {
              "internalType": "uint256",
              "name": "verifiedBands",
              "type": "uint256"
            },
            {
              "internalType": "uint256",
              "name": "reputation",
              "type": "uint256"
            },
            {
              "internalType": "uint256",
              "name": "joinDate",
              "type": "uint256"
            },
            {
              "internalType": "bool",
              "name": "exists",
              "type": "bool"
            }
          ],
          "internalType": "struct MetalForgeRegistry.UserStats",
          "name": "",
          "type": "tuple"
        }
      ],
      "stateMutability": "view",
      "type": "function"
    },
    {
      "inputs": [],
      "name": "getVerifiedBandsCount",
      "outputs": [
        {
          "internalType": "uint256",
          "name": "",
          "type": "uint256"
        }
      ],
      "stateMutability": "view",
      "type": "function"
    },
    {
      "inputs": [],
      "name": "owner",
      "outputs": [
        {
          "internalType": "address",
          "name": "",
          "type": "address"
        }
      ],
      "stateMutability": "view",
      "type": "function"
    },
    {
      "inputs": [
        {
          "internalType": "address",
          "name": "_verifier",
          "type": "address"
        }
      ],
      "name": "removeVerifier",
      "outputs": [],
      "stateMutability": "nonpayable",
      "type": "function"
    },
    {
      "inputs": [],
      "name": "renounceOwnership",
      "outputs": [],
      "stateMutability": "nonpayable",
      "type": "function"
    },
    {
      "inputs": [
        {
          "internalType": "address",
          "name": "newOwner",
          "type": "address"
        }
      ],
      "name": "transferOwnership",
      "outputs": [],
      "stateMutability": "nonpayable",
      "type": "function"
    },
    {
      "inputs": [
        {
          "internalType": "address",
          "name": "",
          "type": "address"
        },
        {
          "internalType": "uint256",
          "name": "",
          "type": "uint256"
        }
      ],
      "name": "userBands",
      "outputs": [
        {
          "internalType": "uint256",
          "name": "",
          "type": "uint256"
        }
      ],
      "stateMutability": "view",
      "type": "function"
    },
    {
      "inputs": [
        {
          "internalType": "address",
          "name": "",
          "type": "address"
        }
      ],
      "name": "userStats",
      "outputs": [
        {
          "internalType": "uint256",
          "name": "totalBands",
          "type": "uint256"
        },
        {
          "internalType": "uint256",
          "name": "verifiedBands",
          "type": "uint256"
        },
        {
          "internalType": "uint256",
          "name": "reputation",
          "type": "uint256"
        },
        {
          "internalType": "uint256",
          "name": "joinDate",
          "type": "uint256"
        },
        {
          "internalType": "bool",
          "name": "exists",
          "type": "bool"
        }
      ],
      "stateMutability": "view",
      "type": "function"
    },
    {
      "inputs": [
        {
          "internalType": "address",
          "name": "",
          "type": "address"
        }
      ],
      "name": "verifiers",
      "outputs": [
        {
          "internalType": "bool",
          "name": "",
          "type": "bool"
        }
      ],
      "stateMutability": "view",
      "type": "function"
    },
    {
      "inputs": [
        {
          "internalType": "uint256",
          "name": "_bandId",
          "type": "uint256"
        }
      ],
      "name": "verifyBand",
      "outputs": [],
      "stateMutability": "nonpayable",
      "type": "function"
    }
  ],
  "bytecode": "0x6080604052600060025534801561001557600080fd5b50338061003c57604051631e4fbdf760e01b81526000600482015260240160405180910390fd5b6100458161006a565b506001808055336000908152600760205260409020805460ff191690911790556100ba565b600080546001600160a01b038381166001600160a01b0319831681178455604051919092169283917f8be0079c531659141344cd1fd0a4f28419497f9722a3daafe3b4186f6b6457e09190a35050565b611d66806100c96000396000f3fe608060405234801561001057600080fd5b50600436106101425760003560e01c806375e604f7116100b8578063b6daa7381161007c578063b6daa7381461034e578063ca2dfd0a14610361578063f09f4c0a14610374578063f1fa08351461037c578063f2fde38b146103a6578063f910ade1146103b957600080fd5b806375e604f71461027557806381f7a5a3146102885780638a65d874146102b65780638da5cb5b146103205780639000b3d61461033b57600080fd5b80635d23a3e51161010a5780635d23a3e5146101ea5780636c824487146101fd5780636d8f1f971461023057806370444b5714610250578063705695d114610265578063715018a61461026d57600080fd5b806309d440991461014757806322291da51461016257806336af8d051461016a578063480e1949146101735780634e43603a14610193575b600080fd5b61014f600f81565b6040519081526020015b60405180910390f35b61014f600581565b61014f6107a881565b61018661018136600461166f565b6103c1565b60405161015991906116d8565b6101a66101a13660046117ed565b610751565b6040516101599190600060a0820190508251825260208301516020830152604083015160408301526060830151606083015260808301511515608083015292915050565b61014f6101f836600461180f565b6107e2565b61022061020b3660046117ed565b60076020526000908152604090205460ff1681565b6040519015158152602001610159565b61024361023e3660046117ed565b610813565b6040516101599190611839565b61026361025e366004611920565b61087f565b005b61014f610c1c565b610263610c6b565b6102436102833660046119b0565b610c7f565b6102206102963660046119b0565b805160208183018101805160068252928201919093012091525460ff1681565b6102f66102c43660046117ed565b600560205260009081526040902080546001820154600283015460038401546004909401549293919290919060ff1685565b6040805195865260208601949094529284019190915260608301521515608082015260a001610159565b6000546040516001600160a01b039091168152602001610159565b6102636103493660046117ed565b610df3565b61026361035c36600461166f565b610e9d565b61026361036f3660046117ed565b61107f565b61014f600a81565b61038f61038a36600461166f565b611132565b6040516101599b9a999897969594939291906119ed565b6102636103b43660046117ed565b6113bc565b60025461014f565b610432604051806101600160405280600081526020016060815260200160608152602001606081526020016000815260200160006001600160a01b031681526020016000815260200160001515815260200160006001600160a01b0316815260200160008152602001606081525090565b60008211801561044457506002548211155b6104875760405162461bcd60e51b815260206004820152600f60248201526e125b9d985b1a590818985b99081251608a1b60448201526064015b60405180910390fd5b6003600083815260200190815260200160002060405180610160016040529081600082015481526020016001820180546104c090611a8c565b80601f01602080910402602001604051908101604052809291908181526020018280546104ec90611a8c565b80156105395780601f1061050e57610100808354040283529160200191610539565b820191906000526020600020905b81548152906001019060200180831161051c57829003601f168201915b5050505050815260200160028201805461055290611a8c565b80601f016020809104026020016040519081016040528092919081815260200182805461057e90611a8c565b80156105cb5780601f106105a0576101008083540402835291602001916105cb565b820191906000526020600020905b8154815290600101906020018083116105ae57829003601f168201915b505050505081526020016003820180546105e490611a8c565b80601f016020809104026020016040519081016040528092919081815260200182805461061090611a8c565b801561065d5780601f106106325761010080835404028352916020019161065d565b820191906000526020600020905b81548152906001019060200180831161064057829003601f168201915b50505091835250506004820154602082015260058201546001600160a01b03908116604083015260068301546060830152600783015460ff81161515608084015261010090041660a0820152600882015460c082015260098201805460e0909201916106c890611a8c565b80601f01602080910402602001604051908101604052809291908181526020018280546106f490611a8c565b80156107415780601f1061071657610100808354040283529160200191610741565b820191906000526020600020905b81548152906001019060200180831161072457829003601f168201915b5050505050815250509050919050565b6107856040518060a00160405280600081526020016000815260200160008152602001600081526020016000151581525090565b506001600160a01b0316600090815260056020908152604091829020825160a081018452815481526001820154928101929092526002810154928201929092526003820154606082015260049091015460ff161515608082015290565b600460205281600052604060002081815481106107fe57600080fd5b90600052602060002001600091509150505481565b6001600160a01b03811660009081526004602090815260409182902080548351818402810184019094528084526060939283018282801561087357602002820191906000526020600020905b81548152602001906001019080831161085f575b50505050509050919050565b83838260008351116108c85760405162461bcd60e51b815260206004820152601260248201527110985b99081b985b59481c995c5d5a5c995960721b604482015260640161047e565b600082511161090a5760405162461bcd60e51b815260206004820152600e60248201526d11d95b9c99481c995c5d5a5c995960921b604482015260640161047e565b6107a8811015801561093557506109256301e1338042611ad6565b610931906107b2611af8565b8111155b6109705760405162461bcd60e51b815260206004820152600c60248201526b24b73b30b634b2103cb2b0b960a11b604482015260640161047e565b6006836040516109809190611b11565b9081526040519081900360200190205460ff16156109d65760405162461bcd60e51b815260206004820152601360248201527242616e6420616c72656164792065786973747360681b604482015260640161047e565b6109de6113f7565b600280549060006109ee83611b2d565b9091555050600254604080516101608101825282815260208082018b81528284018b9052606083018a9052608083018990523360a08401524260c0840152600060e08401819052610100840181905261012084018190528451808401865281815261014085015285815260039092529290208151815591519091906001820190610a789082611b95565b5060408201516002820190610a8d9082611b95565b5060608201516003820190610aa29082611b95565b506080820151600482015560a08201516005820180546001600160a01b0319166001600160a01b0392831617905560c0830151600683015560e0830151600783018054610100808701516001600160a81b0319909216931515610100600160a81b03191693909317931690910291909117905561012082015160088201556101408201516009820190610b359082611b95565b509050506001600689604051610b4b9190611b11565b9081526040805160209281900383019020805460ff1916931515939093179092553360008181526004835292832080546001810182559084529190922001829055610b9590611421565b610bc33360056040518060400160405280600a81526020016910985b9908105919195960b21b815250611568565b336001600160a01b0316817f204f7d726e195cfe72e37018c38a2f2e5c1a55a178e66ec5cf946b8ffc3d2f6b8a8a42604051610c0193929190611c55565b60405180910390a350610c1360018055565b50505050505050565b60008060015b6002548111610c655760008181526003602052604090206007015460ff1615610c535781610c4f81611b2d565b9250505b80610c5d81611b2d565b915050610c22565b50919050565b610c736115f2565b610c7d600061161f565b565b6060600060025467ffffffffffffffff811115610c9e57610c9e61187d565b604051908082528060200260200182016040528015610cc7578160200160208202803683370190505b509050600060015b6002548111610d4e57848051906020012060036000838152602001908152602001600020600201604051610d039190611c8b565b604051809103902003610d3c5780838381518110610d2357610d23611d01565b602090810291909101015281610d3881611b2d565b9250505b80610d4681611b2d565b915050610ccf565b5060008167ffffffffffffffff811115610d6a57610d6a61187d565b604051908082528060200260200182016040528015610d93578160200160208202803683370190505b50905060005b82811015610dea57838181518110610db357610db3611d01565b6020026020010151828281518110610dcd57610dcd611d01565b602090810291909101015280610de281611b2d565b915050610d99565b50949350505050565b610dfb6115f2565b6001600160a01b038116610e515760405162461bcd60e51b815260206004820152601860248201527f496e76616c696420766572696669657220616464726573730000000000000000604482015260640161047e565b6001600160a01b038116600081815260076020526040808220805460ff19166001179055517f6d05492139c5ea989514a5d2150c028041e5c087e2a39967f67dc7d2655adb819190a250565b3360009081526007602052604090205460ff1680610ec557506000546001600160a01b031633145b610f115760405162461bcd60e51b815260206004820152601760248201527f4e6f7420617574686f72697a6564207665726966696572000000000000000000604482015260640161047e565b610f196113f7565b600081118015610f2b57506002548111155b610f695760405162461bcd60e51b815260206004820152600f60248201526e125b9d985b1a590818985b99081251608a1b604482015260640161047e565b60008181526003602052604090206007015460ff1615610fc35760405162461bcd60e51b815260206004820152601560248201527410985b9908185b1c9958591e481d995c9a599a5959605a1b604482015260640161047e565b60008181526003602090815260409182902060078101805433610100026001600160a81b0319909116176001179055600501548251808401909352600d83526c10985b990815995c9a599a5959609a1b918301919091526001600160a01b031690611032908290600a90611568565b61103b81611421565b604051428152339083907fe92d3ec26957a7930723460c588e065a74155477472b26dc86e6d55f5a45eaf49060200160405180910390a35061107c60018055565b50565b6110876115f2565b6000546001600160a01b03166001600160a01b0316816001600160a01b0316036110e95760405162461bcd60e51b815260206004820152601360248201527221b0b73737ba103932b6b7bb329037bbb732b960691b604482015260640161047e565b6001600160a01b038116600081815260076020526040808220805460ff19169055517f44a3cd4eb5cc5748f6169df057b1cb2ae4c383e87cd94663c430e095d4cba4249190a250565b6003602052600090815260409020805460018201805491929161115490611a8c565b80601f016020809104026020016040519081016040528092919081815260200182805461118090611a8c565b80156111cd5780601f106111a2576101008083540402835291602001916111cd565b820191906000526020600020905b8154815290600101906020018083116111b057829003601f168201915b5050505050908060020180546111e290611a8c565b80601f016020809104026020016040519081016040528092919081815260200182805461120e90611a8c565b801561125b5780601f106112305761010080835404028352916020019161125b565b820191906000526020600020905b81548152906001019060200180831161123e57829003601f168201915b50505050509080600301805461127090611a8c565b80601f016020809104026020016040519081016040528092919081815260200182805461129c90611a8c565b80156112e95780601f106112be576101008083540402835291602001916112e9565b820191906000526020600020905b8154815290600101906020018083116112cc57829003601f168201915b50505060048401546005850154600686015460078701546008880154600989018054989995986001600160a01b03958616985093965060ff83169561010090930490941693909261133990611a8c565b80601f016020809104026020016040519081016040528092919081815260200182805461136590611a8c565b80156113b25780601f10611387576101008083540402835291602001916113b2565b820191906000526020600020905b81548152906001019060200180831161139557829003601f168201915b505050505090508b565b6113c46115f2565b6001600160a01b0381166113ee57604051631e4fbdf760e01b81526000600482015260240161047e565b61107c8161161f565b60026001540361141a57604051633ee5aeb560e01b815260040160405180910390fd5b6002600155565b6001600160a01b03811660009081526005602052604090206004015460ff16611471576001600160a01b0381166000908152600560205260409020426003820155600401805460ff191660011790555b6001600160a01b0381166000908152600460209081526040808320805482518185028101850190935280835291929091908301828280156114d157602002820191906000526020600020905b8154815260200190600101908083116114bd575b505050505090506000805b825181101561154157600360008483815181106114fb576114fb611d01565b60209081029190910181015182528101919091526040016000206007015460ff161561152f578161152b81611b2d565b9250505b8061153981611b2d565b9150506114dc565b5090516001600160a01b039092166000908152600560205260409020918255600190910155565b6001600160a01b03831660009081526005602052604081206002018054849290611593908490611af8565b90915550506001600160a01b038316600081815260056020526040908190206002015490517fc17e77081800e4bec45161da763d23d62f41146fb2629ee32a8fea0765743a12916115e5918590611d17565b60405180910390a2505050565b6000546001600160a01b03163314610c7d5760405163118cdaa760e01b815233600482015260240161047e565b600080546001600160a01b038381166001600160a01b0319831681178455604051919092169283917f8be0079c531659141344cd1fd0a4f28419497f9722a3daafe3b4186f6b6457e09190a35050565b60006020828403121561168157600080fd5b5035919050565b60005b838110156116a357818101518382015260200161168b565b50506000910152565b600081518084526116c4816020860160208601611688565b601f01601f19169290920160200192915050565b6020815281516020820152600060208301516101608060408501526117016101808501836116ac565b91506040850151601f198086850301606087015261171f84836116ac565b9350606087015191508086850301608087015261173c84836116ac565b9350608087015160a087015260a0870151915061176460c08701836001600160a01b03169052565b60c087015160e087015260e087015191506101006117858188018415159052565b87015191506101206117a1878201846001600160a01b03169052565b870151610140878101919091528701518685039091018387015290506117c783826116ac565b9695505050505050565b80356001600160a01b03811681146117e857600080fd5b919050565b6000602082840312156117ff57600080fd5b611808826117d1565b9392505050565b6000806040838503121561182257600080fd5b61182b836117d1565b946020939093013593505050565b6020808252825182820181905260009190848201906040850190845b8181101561187157835183529284019291840191600101611855565b50909695505050505050565b634e487b7160e01b600052604160045260246000fd5b600082601f8301126118a457600080fd5b813567ffffffffffffffff808211156118bf576118bf61187d565b604051601f8301601f19908116603f011681019082821181831017156118e7576118e761187d565b8160405283815286602085880101111561190057600080fd5b836020870160208301376000602085830101528094505050505092915050565b6000806000806080858703121561193657600080fd5b843567ffffffffffffffff8082111561194e57600080fd5b61195a88838901611893565b9550602087013591508082111561197057600080fd5b61197c88838901611893565b9450604087013591508082111561199257600080fd5b5061199f87828801611893565b949793965093946060013593505050565b6000602082840312156119c257600080fd5b813567ffffffffffffffff8111156119d957600080fd5b6119e584828501611893565b949350505050565b60006101608d8352806020840152611a078184018e6116ac565b90508281036040840152611a1b818d6116ac565b90508281036060840152611a2f818c6116ac565b608084018b90526001600160a01b038a811660a086015260c085018a905288151560e0860152871661010085015261012084018690528381036101408501529050611a7a81856116ac565b9e9d5050505050505050505050505050565b600181811c90821680611aa057607f821691505b602082108103610c6557634e487b7160e01b600052602260045260246000fd5b634e487b7160e01b600052601160045260246000fd5b600082611af357634e487b7160e01b600052601260045260246000fd5b500490565b80820180821115611b0b57611b0b611ac0565b92915050565b60008251611b23818460208701611688565b9190910192915050565b600060018201611b3f57611b3f611ac0565b5060010190565b601f821115611b9057600081815260208120601f850160051c81016020861015611b6d5750805b601f850160051c820191505b81811015611b8c57828155600101611b79565b5050505b505050565b815167ffffffffffffffff811115611baf57611baf61187d565b611bc381611bbd8454611a8c565b84611b46565b602080601f831160018114611bf85760008415611be05750858301515b600019600386901b1c1916600185901b178555611b8c565b600085815260208120601f198616915b82811015611c2757888601518255948401946001909101908401611c08565b5085821015611c455787850151600019600388901b60f8161c191681555b5050505050600190811b01905550565b606081526000611c6860608301866116ac565b8281036020840152611c7a81866116ac565b915050826040830152949350505050565b6000808354611c9981611a8c565b60018281168015611cb15760018114611cc657611cf5565b60ff1984168752821515830287019450611cf5565b8760005260208060002060005b85811015611cec5781548a820152908401908201611cd3565b50505082870194505b50929695505050505050565b634e487b7160e01b600052603260045260246000fd5b8281526040602082015260006119e560408301846116ac56fea2646970667358221220004068b51ba653e3bd1bfa98b78fbcc8cef2dbb51a5bdd96035db85b03e6ca0a64736f6c63430008140033",
  "linkReferences": {},
  "deployedLinkReferences": {}
}