{
  "_format": "hh-sol-artifact-1",
  "contractName": "MetalForgeRegistry",
  "sourceName": "contracts/MetalForgeRegistry.sol",
  "abi": [
    {
      "inputs": [],
      "stateMutability": "nonpayable",
      "type": "constructor"
    },
    {
      "anonymous": false,
      "inputs": [
        {
          "indexed": true,
          "internalType": "address",
          "name": "user",
          "type": "address"
        },
        {
          "indexed": true,
          "internalType": "uint256",
          "name": "bandId",
          "type": "uint256"
        },
        {
          "indexed": false,
          "internalType": "string",
          "name": "name",
          "type": "string"
        }
      ],
      "name": "BandAdded",
      "type": "event"
    },
    {
      "anonymous": false,
      "inputs": [
        {
          "indexed": true,
          "internalType": "address",
          "name": "user",
          "type": "address"
        },
        {
          "indexed": true,
          "internalType": "uint256",
          "name": "bandId",
          "type": "uint256"
        }
      ],
      "name": "BandVerified",
      "type": "event"
    },
    {
      "anonymous": false,
      "inputs": [
        {
          "indexed": true,
          "internalType": "address",
          "name": "previousOwner",
          "type": "address"
        },
        {
          "indexed": true,
          "internalType": "address",
          "name": "newOwner",
          "type": "address"
        }
      ],
      "name": "OwnershipTransferred",
      "type": "event"
    },
    {
      "inputs": [
        {
          "internalType": "string",
          "name": "name",
          "type": "string"
        },
        {
          "internalType": "string",
          "name": "genre",
          "type": "string"
        },
        {
          "internalType": "string",
          "name": "country",
          "type": "string"
        },
        {
          "internalType": "uint256",
          "name": "year",
          "type": "uint256"
        }
      ],
      "name": "addBand",
      "outputs": [],
      "stateMutability": "nonpayable",
      "type": "function"
    },
    {
      "inputs": [
        {
          "internalType": "address",
          "name": "user",
          "type": "address"
        }
      ],
      "name": "getUserBands",
      "outputs": [
        {
          "components": [
            {
              "internalType": "string",
              "name": "name",
              "type": "string"
            },
            {
              "internalType": "string",
              "name": "genre",
              "type": "string"
            },
            {
              "internalType": "string",
              "name": "country",
              "type": "string"
            },
            {
              "internalType": "uint256",
              "name": "year",
              "type": "uint256"
            },
            {
              "internalType": "bool",
              "name": "verified",
              "type": "bool"
            },
            {
              "internalType": "uint256",
              "name": "timestamp",
              "type": "uint256"
            }
          ],
          "internalType": "struct MetalForgeRegistry.Band[]",
          "name": "",
          "type": "tuple[]"
        }
      ],
      "stateMutability": "view",
      "type": "function"
    },
    {
      "inputs": [],
      "name": "owner",
      "outputs": [
        {
          "internalType": "address",
          "name": "",
          "type": "address"
        }
      ],
      "stateMutability": "view",
      "type": "function"
    },
    {
      "inputs": [],
      "name": "renounceOwnership",
      "outputs": [],
      "stateMutability": "nonpayable",
      "type": "function"
    },
    {
      "inputs": [
        {
          "internalType": "address",
          "name": "newOwner",
          "type": "address"
        }
      ],
      "name": "transferOwnership",
      "outputs": [],
      "stateMutability": "nonpayable",
      "type": "function"
    },
    {
      "inputs": [
        {
          "internalType": "address",
          "name": "",
          "type": "address"
        }
      ],
      "name": "userBandCount",
      "outputs": [
        {
          "internalType": "uint256",
          "name": "",
          "type": "uint256"
        }
      ],
      "stateMutability": "view",
      "type": "function"
    },
    {
      "inputs": [
        {
          "internalType": "address",
          "name": "",
          "type": "address"
        },
        {
          "internalType": "uint256",
          "name": "",
          "type": "uint256"
        }
      ],
      "name": "userBands",
      "outputs": [
        {
          "internalType": "string",
          "name": "name",
          "type": "string"
        },
        {
          "internalType": "string",
          "name": "genre",
          "type": "string"
        },
        {
          "internalType": "string",
          "name": "country",
          "type": "string"
        },
        {
          "internalType": "uint256",
          "name": "year",
          "type": "uint256"
        },
        {
          "internalType": "bool",
          "name": "verified",
          "type": "bool"
        },
        {
          "internalType": "uint256",
          "name": "timestamp",
          "type": "uint256"
        }
      ],
      "stateMutability": "view",
      "type": "function"
    },
    {
      "inputs": [
        {
          "internalType": "address",
          "name": "user",
          "type": "address"
        },
        {
          "internalType": "uint256",
          "name": "bandId",
          "type": "uint256"
        }
      ],
      "name": "verifyBand",
      "outputs": [],
      "stateMutability": "nonpayable",
      "type": "function"
    }
  ],
  "bytecode": "0x608060405234801561001057600080fd5b5061001a3361001f565b61006f565b600080546001600160a01b038381166001600160a01b0319831681178455604051919092169283917f8be0079c531659141344cd1fd0a4f28419497f9722a3daafe3b4186f6b6457e09190a35050565b610e1f8061007e6000396000f3fe608060405234801561001057600080fd5b50600436106100885760003560e01c8063715018a61161005b578063715018a61461011e5780638da5cb5b14610126578063cdac5ba114610141578063f2fde38b1461015457600080fd5b80635d23a3e51461008d5780636cce106f146100bb5780636d8f1f97146100e957806370444b5714610109575b600080fd5b6100a061009b366004610972565b610167565b6040516100b2969594939291906109e2565b60405180910390f35b6100db6100c9366004610a3a565b60016020526000908152604090205481565b6040519081526020016100b2565b6100fc6100f7366004610a3a565b610344565b6040516100b29190610a5c565b61011c610117366004610bc0565b610634565b005b61011c610758565b6000546040516001600160a01b0390911681526020016100b2565b61011c61014f366004610972565b61076c565b61011c610162366004610a3a565b610833565b600260209081526000928352604080842090915290825290208054819061018d90610c50565b80601f01602080910402602001604051908101604052809291908181526020018280546101b990610c50565b80156102065780601f106101db57610100808354040283529160200191610206565b820191906000526020600020905b8154815290600101906020018083116101e957829003601f168201915b50505050509080600101805461021b90610c50565b80601f016020809104026020016040519081016040528092919081815260200182805461024790610c50565b80156102945780601f1061026957610100808354040283529160200191610294565b820191906000526020600020905b81548152906001019060200180831161027757829003601f168201915b5050505050908060020180546102a990610c50565b80601f01602080910402602001604051908101604052809291908181526020018280546102d590610c50565b80156103225780601f106102f757610100808354040283529160200191610322565b820191906000526020600020905b81548152906001019060200180831161030557829003601f168201915b50505050600383015460048401546005909401549293909260ff909116915086565b6001600160a01b0381166000908152600160205260408120546060918167ffffffffffffffff81111561037957610379610b1d565b6040519080825280602002602001820160405280156103e557816020015b6103d26040518060c0016040528060608152602001606081526020016060815260200160008152602001600015158152602001600081525090565b8152602001906001900390816103975790505b50905060005b8281101561062c576001600160a01b038516600090815260026020908152604080832084845290915290819020815160c0810190925280548290829061043090610c50565b80601f016020809104026020016040519081016040528092919081815260200182805461045c90610c50565b80156104a95780601f1061047e576101008083540402835291602001916104a9565b820191906000526020600020905b81548152906001019060200180831161048c57829003601f168201915b505050505081526020016001820180546104c290610c50565b80601f01602080910402602001604051908101604052809291908181526020018280546104ee90610c50565b801561053b5780601f106105105761010080835404028352916020019161053b565b820191906000526020600020905b81548152906001019060200180831161051e57829003601f168201915b5050505050815260200160028201805461055490610c50565b80601f016020809104026020016040519081016040528092919081815260200182805461058090610c50565b80156105cd5780601f106105a2576101008083540402835291602001916105cd565b820191906000526020600020905b8154815290600101906020018083116105b057829003601f168201915b505050918352505060038201546020820152600482015460ff1615156040820152600590910154606090910152825183908390811061060e5761060e610c8a565b6020026020010181905250808061062490610ca0565b9150506103eb565b509392505050565b33600081815260016020908152604080832054815160c08101835289815280840189905280830188905260608101879052608081018590524260a082015294845260028352818420818552909252909120825191929181906106969082610d16565b50602082015160018201906106ab9082610d16565b50604082015160028201906106c09082610d16565b5060608201516003820155608082015160048201805460ff191691151591909117905560a09091015160059091015533600090815260016020526040812080549161070a83610ca0565b919050555080336001600160a01b03167fd7eb4a84146760a660e6a0bca856de15831979a97899677f6b4643489a862aa2876040516107499190610dd6565b60405180910390a35050505050565b6107606108ac565b61076a6000610906565b565b6107746108ac565b6001600160a01b03821660009081526001602052604090205481106107d65760405162461bcd60e51b815260206004820152601360248201527210985b9908191bd95cc81b9bdd08195e1a5cdd606a1b60448201526064015b60405180910390fd5b6001600160a01b0382166000818152600260209081526040808320858452909152808220600401805460ff19166001179055518392917f56f66ce59457cee06df57274c0ce1689b498b3675fbc9b58f7a11e8a3ea944eb91a35050565b61083b6108ac565b6001600160a01b0381166108a05760405162461bcd60e51b815260206004820152602660248201527f4f776e61626c653a206e6577206f776e657220697320746865207a65726f206160448201526564647265737360d01b60648201526084016107cd565b6108a981610906565b50565b6000546001600160a01b0316331461076a5760405162461bcd60e51b815260206004820181905260248201527f4f776e61626c653a2063616c6c6572206973206e6f7420746865206f776e657260448201526064016107cd565b600080546001600160a01b038381166001600160a01b0319831681178455604051919092169283917f8be0079c531659141344cd1fd0a4f28419497f9722a3daafe3b4186f6b6457e09190a35050565b80356001600160a01b038116811461096d57600080fd5b919050565b6000806040838503121561098557600080fd5b61098e83610956565b946020939093013593505050565b6000815180845260005b818110156109c2576020818501810151868301820152016109a6565b506000602082860101526020601f19601f83011685010191505092915050565b60c0815260006109f560c083018961099c565b8281036020840152610a07818961099c565b90508281036040840152610a1b818861099c565b60608401969096525050911515608083015260a0909101529392505050565b600060208284031215610a4c57600080fd5b610a5582610956565b9392505050565b60006020808301818452808551808352604092508286019150828160051b87010184880160005b83811015610b0f57603f19898403018552815160c08151818652610aa98287018261099c565b915050888201518582038a870152610ac1828261099c565b9150508782015185820389870152610ad9828261099c565b6060848101519088015260808085015115159088015260a093840151939096019290925250509386019390860190600101610a83565b509098975050505050505050565b634e487b7160e01b600052604160045260246000fd5b600082601f830112610b4457600080fd5b813567ffffffffffffffff80821115610b5f57610b5f610b1d565b604051601f8301601f19908116603f01168101908282118183101715610b8757610b87610b1d565b81604052838152866020858801011115610ba057600080fd5b836020870160208301376000602085830101528094505050505092915050565b60008060008060808587031215610bd657600080fd5b843567ffffffffffffffff80821115610bee57600080fd5b610bfa88838901610b33565b95506020870135915080821115610c1057600080fd5b610c1c88838901610b33565b94506040870135915080821115610c3257600080fd5b50610c3f87828801610b33565b949793965093946060013593505050565b600181811c90821680610c6457607f821691505b602082108103610c8457634e487b7160e01b600052602260045260246000fd5b50919050565b634e487b7160e01b600052603260045260246000fd5b600060018201610cc057634e487b7160e01b600052601160045260246000fd5b5060010190565b601f821115610d1157600081815260208120601f850160051c81016020861015610cee5750805b601f850160051c820191505b81811015610d0d57828155600101610cfa565b5050505b505050565b815167ffffffffffffffff811115610d3057610d30610b1d565b610d4481610d3e8454610c50565b84610cc7565b602080601f831160018114610d795760008415610d615750858301515b600019600386901b1c1916600185901b178555610d0d565b600085815260208120601f198616915b82811015610da857888601518255948401946001909101908401610d89565b5085821015610dc65787850151600019600388901b60f8161c191681555b5050505050600190811b01905550565b602081526000610a55602083018461099c56fea26469706673582212207689250ba2afa8bea8a4a03943b5806b91579f9bb3d67c4b3d4a603c5771c84e64736f6c63430008140033",
  "linkReferences": {},
  "deployedLinkReferences": {}
}